:020000040000FA
:060000000000000055287D
:08000800FD00030E8301FC0062
:100010000A08FE008A01372B2020202020202020E3
:1000200020202020282043202920632062207020C7
:1000300020203220302030203320462070207220B3
:1000400063203520722078202020522065206C20EB
:100050006520612073206520202031203620462035
:100060003820372033202020202058207420612081
:100070006C20320030002E003000562065207220A7
:1000800020203000330036002020412063207420DF
:100090002E204C206F20772020204D206F206420C0
:1000A00065205420612062203120203084005F30A0
:1000B000FF008001840AFF0B5928FF018B010630E5
:1000C000831603139F00831277228613E521831280
:1000D000031390015A30E6008C222C272D22762221
:1000E000610EF039A70471226C270000861700000A
:1000F000051096309C220000861300000514D622BD
:100100002609CF002709D0002809D1002909D200EB
:10011000FB210030EB00FF30F6008B30C400810182
:1001200082308316031381008312A0308B00711E6E
:10013000B4282418B4286D08B1006E08B200BB269C
:10014000031CB3282414DD003D08C000DE26D4269D
:100150000318A328223003222330EA004008DA26BD
:10016000023C0319B3287112711DCF28241CCE281C
:10017000EA010C22BB26031CC428DD003D08C00098
:100180000027D4260318BD286C2724106430E30010
:100190004008DA26023C0319CE28CE287111E42249
:1001A00048190B290310D60CD50CD40CD30CD7034B
:1001B000D71FDB28FB21570DAF00AF0E0330AF0573
:1001C00026302F0784000008DF0053302F078400FB
:1001D0000008E0004F302F0784000008DE005E08B2
:1001E0005F06600503190B295E086005031DFD28E5
:1001F0006008DE040130CD0002296009DE05003010
:10020000CD0002295E0880005708CE006830CC007F
:100210000330CB0048150301230703197B29030191
:100220006A0703191729EA0B172900006C27030135
:100230006307031921296430F119E300E30B212935
:100240000D27A3030301650703192C29E60B2C29AD
:100250006508A704E5016C27A41C3C29861F3529E5
:10026000241A35290830A406412924187029772238
:100270009924031886217029861F4729241A70297A
:10028000A4140F30A4191E30D521A30170292419FC
:100290006A299924031C70293927031C7029C60078
:1002A000DA26023C031960294608DA26033C0319C2
:1002B00060294608DA26043C031960294D274D2998
:1002C0003F08DD003D08C000DE266C272415053000
:1002D000E4007029992403186729E40B702924117C
:1002E00010220301380703197B29B80B7B298826C4
:1002F0006C276430E30097286C27992403187C2925
:1003000008006C279924031C81290800B000711291
:10031000BC01BE0100008617000005107C21FA30E8
:100320009C22FA309C223C08DA26013EC600FA30B4
:100330009C22000086130000051496309C227C212C
:100340000000861700000510C60B9729711AB52901
:100350006C279924031CA6293C08DA26013E053C9B
:10036000031D053CDC26BC00932900008613000019
:1003700005146D08BA006E08BB0030080F39BE04C2
:10038000A4193E16710E3039BC042B260318D22155
:100390001A26031CCF2126272C276C27080004309F
:1003A000B32208000330B3220800AF000000861714
:1003B0000000051032309C22000086130000051456
:1003C00032309C22AF0BD6290800861F08008B1301
:1003D0008B1BE7293230D52164008622861FF42941
:1003E0009822C830D521F1299924031CEC296C26C8
:1003F0001430D521EC298030D600D501D401D301A9
:100400001F30D7000800AA00C50A01304502031DAD
:100410000800A4122416222AC50B0800A4160800FE
:10042000241E0800AB0B0800861F222A000086133A
:1004300000000514A41A2A2A0F302A05AB00080070
:10044000A41A2A2A00008617000005102A0E0F3968
:10045000AB0008002412A41208000430E200E101FD
:10046000073062073927031C6E2ADA26033C031D76
:10047000592A02308A0062038207532A4D2A472AEA
:10048000412A8316031385148312E1156E2A8316FD
:1004900003138616831261156E2A8316031305153E
:1004A0008312E1146E2A8316031306168312611455
:1004B0006E2A013E031D6C2A02308A006203820705
:1004C0006A2A682A662A642AE515412A6515472A98
:1004D000E5144D2A6514532A4D27332AE20B302A9E
:1004E00008002708E5056509A70508000800003091
:1004F000831603138500831240308316031386008E
:10050000831218308316031387008312A601A701F4
:10051000A801A9016C2708008B138B1B8C2A0030C3
:100520002723AA3C0319080000303223AA301323E2
:100530005B2626276C270800A0000130A200FA30B5
:10054000A1006400A32AA42AA52AA62AA72AA82AC9
:10055000A92AAA2AA10BA12AA20B9F2AA00B9D2A95
:100560000000000008008B138B1BB32AFC00013035
:10057000FE007C08FD0000008617000005106430B6
:100580009C220000861300000514FA309C22FD0B0B
:10059000BB2AFA309C22FA309C22FA309C22FA3094
:1005A0009C22FA309C227E1C0800B92A2830940034
:1005B0008C118316031380309400603091000A3050
:1005C000930083120313080002308A00490882074F
:1005D000EB2AF72A0C2B481D122B8C1183160313C0
:1005E000111483120313CA010130C900122B8C1D90
:1005F000122B8C11CB03CB1B042B4A084C3E8400DE
:1006000000089300CA0A122B8316031311158312D4
:1006100003130230C900122B8C1D122B8C114811B0
:100620000030C9000800831203178C0083160317DB
:100630008C130C1555308D00AA308D008C140C11C4
:10064000831603178C18222B8312031308008312BE
:1006500003178D00831603178C130C1483120C08D8
:1006600003130800831203178D00031308000B11F6
:10067000831203136400AC0B402BA30A9530AC002B
:10068000EF0B8B2C03308A006B088207542B5B2BFB
:10069000842B922B982BC22BEE2B152C1F2C292C44
:1006A000382C4E2C532C772C061F802C0B108B15BE
:1006B0000130EB0071130B1C622B0B108B115130AE
:1006C00081000B11061B6F2BED01F115F010F015D9
:1006D0000E30EC0070100430EB000330842CEF0A75
:1006E000F01C8B2C701E792B7119792B70157116DB
:1006F0007012F40B8B2CF30B8B2CF01070197115FE
:100700007011FF30F6008B2C7010061F7014EB0A6E
:10071000832CF01D122CF0110730EB00D930C400EF
:100720000230842CEB0AF01D832C71170130842CCD
:10073000061F9E2B701C082C0310A12B7018892BF0
:100740000314ED0DEE0DEC0BB32BFC30F205F013A2
:10075000701BF01770136E1A7017EE116E1AEE15EB
:100760000F30EE05BC2B0230EB00711BF011043092
:10077000711B013E7113842C0530EB000530EC0039
:100780000430842C061F082CEC0BEC2BFC30F105FC
:1007900003307205F104F2156D087502031DD42BA8
:1007A0006E0876020319F2110230F219F900F90B02
:1007B000E32B701DDF2B711570167011E32B701D6C
:1007C00071167015F1116D08F5006E08F600F01441
:1007D0000630EB002D30842C0430842C033072055D
:1007E0000319F62B023C031DFB2B002C0230F300F7
:1007F000B930F400042C0130F300E130F400042C93
:100800000230F300D830F4000030EB000130842CCB
:10081000F1110030EB00701971157011FF30F60006
:100820004330842C8B30C400082C061F442CBA3073
:10083000C4000830EB000F30EC00ED01892C061FDE
:10084000262C03306C020319412C122C0930EB00CA
:10085000892C061F332C0830EB000310ED0DEE0D34
:10086000EC0B892C412C7214F2100A30EB00892C0D
:10087000061F122C0830EB000314ED0DEE0DEC0BEF
:10088000892C8B30C400BC2BD930C4000B30EB005A
:100890003130EC00ED01F7010430842CF8010C300C
:1008A000EB008830C400F809780AC407F801061F75
:1008B0005B2CF70A862C01307702031D612C031490
:1008C000662C03307702031D6D2C0310EC0B702C8B
:1008D0007210F2148B30C400BC2B00000000082CF6
:1008E000ED0DEE0DF7010D30EB000130842CEB30F7
:1008F000061F0F30F800C4070C30EB000130842CC9
:100900000130EF008B2C0230EF008B2C0230EF0017
:100910008B2C0230EF004408810203180B150B1DCD
:10092000922C372B7E088A007C0E8300FD0E7D0EF4
:1009300009000301261C9F2C071D2C2DA22C071D2E
:10094000A22C2C2D013EA61CA82C871E2C2DAB2CD6
:10095000871EAB2C2C2D013E261DB12C871C2C2D67
:10096000B42C871CB42C2C2D013EA61DBA2C071FBD
:100970002C2DBD2C071FBD2C2C2D013E261EC32C5B
:10098000071C2C2DC62C071CC62C2C2D013EA61E88
:10099000CC2C871F2C2DCF2C871FCF2C2C2D013E2C
:1009A000261FD52C061C2C2DD82C061CD82C2C2D03
:1009B000013EA61FDE2C861C2C2DE12C861CE12C72
:1009C0002C2D013E271CE72C851E2C2DEA2C851E84
:1009D000EA2C2C2D013EA71CF02C061D2C2DF32CEF
:1009E000061DF32C2C2D013E271DF92C861D2C2DC8
:1009F000FC2C861DFC2C2C2D013EA71D022D851DD7
:100A00002C2D052D851D052D2C2D013E271E0B2D72
:100A1000061E2C2D0E2D061E0E2D2C2D013EA71E62
:100A2000142D051D2C2D172D051D172D2C2D013EC8
:100A3000271F1D2D861E2C2D202D861E202D2C2D92
:100A4000013EA71F262D851C2C2D292D851C292D07
:100A50002C2D013E0310502DA4184F2DAF000C304B
:100A60002F02031D362D611C4E2D4C2D0D302F02F3
:100A7000031D3D2DE11C4E2D4C2D0E302F02031D6C
:100A8000442D611D4E2D4C2D0F302F02031D4B2D7B
:100A9000E11D4E2D4C2D4E2D0430AF022F080314B6
:100AA00008007825031808009B253308A60434089D
:100AB000A7043508A8043608A904080078250318F7
:100AC00008009B253309A6053409A7053509A805A3
:100AD0003609A90508007825031808009B25330866
:100AE000A6063408A7063508A8063608A906080091
:100AF000DC000C305C02031D802D611C982D962DAE
:100B00000D305C02031D872DE11C982D962D0E30B3
:100B10005C02031D8E2D611D982D962D0F305C02F9
:100B2000031D952DE11D982D962D982D0314992DBB
:100B300003105C080800013EB301B401B501B60121
:100B40000314B30DB40DB50DB60DFF3E0310031D18
:100B5000A12D0800B9000310B90DB90D080039081E
:100B60008B138B1BB02D8A150A1200218A110A12D1
:100B70003A088A150A122D2109218A110A123B0806
:100B80008A150A122D2109218A110A123C088A1598
:100B90000A122D2109218A110A123E088A150A1209
:100BA0002D218A110A128B1708003908033E8B1376
:100BB0008B1BD72D8A150A12002114218A110A12C3
:100BC0008B17BF00080039088B138B1BE42D8A1587
:100BD0000A12002114218A110A128B17AD00080095
:100BE00039088B138B1BF12D8A150A120021142151
:100BF0008A110A128B17AD008B138B1BFC2D8A15E3
:100C00000A12092114218A110A12AE008A150A1249
:100C1000092114218A110A128B17BD008B138B1B1B
:100C20000E2E8A150A12092114218A110A128B1715
:100C3000BF0008002030A500AF012F08AA25F0252D
:100C40007C260318262EAF2503140800AF0AA50B37
:100C50001D2E031008002030A500AF012F08AA2583
:100C6000F0252D083A02031D432E2E083B02031DDA
:100C7000432E3D083C02031D432E3F083E02031D48
:100C8000432E03140800AF0AA50B2E2E03100800F4
:100C9000BC002030A500AF012F08AA25F025D926D9
:100CA0003C02031D562E3F0803145A2EAF0AA50B13
:100CB0004C2E031008002030A500AF0166262F0837
:100CC000AA25AF25AF0AA50B5F2E0800FF30BA009A
:100CD000BB00BC01BE010800B0002030A5006626A4
:100CE0002503AA25F0251F303F053006031D792E68
:100CF000AF25A50B702E08002D08FF3C031D862E86
:100D00002E08FF3C031D862E031008000314080064
:100D10002030A500AF012F08AA25F0257C26031C52
:100D20009F2E3D08DA26023C031D9F2E3F08370206
:100D300003199D2E3F085E259F2E3F085125AF0ABF
:100D4000A50B8B2E08002030C100B70A0F30B70565
:100D5000370852270318AE2EC10BA52E08002030ED
:100D6000C100B7030F30B705370852270318BA2E52
:100D7000C10BB12E08002030A500AF012F08AA2515
:100D8000E3252D083106031DD42E2F08AA25F025B2
:100D90002E083206031DD42E3D0E71060339031DA5
:100DA000D42E3F080314D82EAF0AA50BBE2E031075
:100DB00008003D08073908000739080006308A0096
:100DC0004008DA268207E82EEB2EEE2EF32EF62EC2
:100DD0005D085125FF2E5D086B25FF2E5D0851250E
:100DE0005D08B700FD2E5D086B25FF2E5D089B2575
:100DF0003409E505F32EFE2EFE2E0430B80008005F
:100E000007308A004008DA2682070A2F0C2F0C2FA1
:100E10000C2F0C2F5D085E2508000430AF00003059
:100E20002F072723DB0025302F07840000085B02F3
:100E30000319232F00302F07322300088B138B1B3D
:100E40001E2F13238B17AF0B0F2F0800A601A7012E
:100E5000A801A9010D2708000430AF0025302F0795
:100E6000840000302F07272380008403AF0B312F2D
:100E70000800C7002030A500AF012F08AA25D525FE
:100E80003F084702031D4D2F2F08AA25F0257C2679
:100E9000031C502F3D080314512FAF0AA50B3D2F03
:100EA00003100800C7002030C200C3014308AA2570
:100EB000D5253F084702031D672F4308AA25F025C3
:100EC0003D08DA26023C031D672F03146B2FC30A6B
:0E0ED000C20B562F031008008A150A120028C4
:10100000261C0428071505280711A61C0928871681
:101010000A288712261D0E2887140F288710A61D60
:101020001328071714280713261E18280714192831
:101030000710A61E1D2887171E288713261F222883
:10104000061423280610A61F272886142828861091
:10105000271C2C2885162D288512A71C312806153B
:1010600032280611271D3628861537288611A71D18
:101070003B2885153C288511A41C5328271E42288F
:10108000061643280612A71E4728051548280511ED
:10109000271F4C2886164D288612A71F5128851415
:1010A000522885106F2861185A28271E59280616BD
:1010B0005A280612E1186128A71E60280515612824
:1010C000051161196828271F672886166828861267
:1010D000E1196F28A71F6E2885146F2885108A11C3
:0410E0000A120800E8
:10120000D8005B30D807D9010318D90A0930D907AB
:101210000800D80A031D0800D90A08000130D802C6
:1012200003180800D9030800831203135808031792
:101230008D000313590803178F0083168C170C14A5
:101240000000000083120C080313DA008316031752
:101250008C13831203135A080800DA008312031355
:10126000580803178D000313590803178F00031341
:101270005A0803178C0003018E0083168C170C1577
:10128000831203138B138316031755308D00AA3076
:101290008D008C14000000000C1183120313080051
:1012A00066206C20612073206820732074206120E8
:0612B000722074203A20B8
:02400E00363F3B
:00000001FF
